{
  "_format": "hh-sol-artifact-1",
  "contractName": "wallet_saver_queue",
  "sourceName": "contracts/wallet_saver_list_queue.sol",
  "abi": [
    {
      "inputs": [
        {
          "internalType": "uint256",
          "name": "_time_delay",
          "type": "uint256"
        },
        {
          "internalType": "address",
          "name": "_panic_address",
          "type": "address"
        },
        {
          "internalType": "address",
          "name": "_owner",
          "type": "address"
        }
      ],
      "stateMutability": "nonpayable",
      "type": "constructor"
    },
    {
      "inputs": [
        {
          "internalType": "address",
          "name": "_erc20",
          "type": "address"
        }
      ],
      "name": "add_token",
      "outputs": [],
      "stateMutability": "nonpayable",
      "type": "function"
    },
    {
      "inputs": [
        {
          "internalType": "uint256",
          "name": "",
          "type": "uint256"
        }
      ],
      "name": "block_time_starts",
      "outputs": [
        {
          "internalType": "uint256",
          "name": "",
          "type": "uint256"
        }
      ],
      "stateMutability": "view",
      "type": "function"
    },
    {
      "inputs": [
        {
          "internalType": "uint256",
          "name": "_nonce",
          "type": "uint256"
        }
      ],
      "name": "execute_call",
      "outputs": [],
      "stateMutability": "payable",
      "type": "function"
    },
    {
      "inputs": [],
      "name": "nonce",
      "outputs": [
        {
          "internalType": "uint256",
          "name": "",
          "type": "uint256"
        }
      ],
      "stateMutability": "view",
      "type": "function"
    },
    {
      "inputs": [],
      "name": "owner",
      "outputs": [
        {
          "internalType": "address",
          "name": "",
          "type": "address"
        }
      ],
      "stateMutability": "view",
      "type": "function"
    },
    {
      "inputs": [],
      "name": "panic",
      "outputs": [],
      "stateMutability": "nonpayable",
      "type": "function"
    },
    {
      "inputs": [
        {
          "internalType": "address payable",
          "name": "_to",
          "type": "address"
        },
        {
          "internalType": "uint256",
          "name": "_value",
          "type": "uint256"
        },
        {
          "internalType": "bytes",
          "name": "_data",
          "type": "bytes"
        }
      ],
      "name": "queue",
      "outputs": [],
      "stateMutability": "nonpayable",
      "type": "function"
    },
    {
      "inputs": [],
      "name": "revert_all_txns",
      "outputs": [],
      "stateMutability": "nonpayable",
      "type": "function"
    },
    {
      "inputs": [
        {
          "internalType": "uint256",
          "name": "_nonce",
          "type": "uint256"
        }
      ],
      "name": "revert_this_txn",
      "outputs": [],
      "stateMutability": "payable",
      "type": "function"
    },
    {
      "inputs": [],
      "name": "token",
      "outputs": [
        {
          "internalType": "contract IERC20",
          "name": "",
          "type": "address"
        }
      ],
      "stateMutability": "view",
      "type": "function"
    },
    {
      "inputs": [
        {
          "internalType": "uint256",
          "name": "",
          "type": "uint256"
        }
      ],
      "name": "tx_content_data",
      "outputs": [
        {
          "internalType": "bytes",
          "name": "",
          "type": "bytes"
        }
      ],
      "stateMutability": "view",
      "type": "function"
    },
    {
      "inputs": [
        {
          "internalType": "uint256",
          "name": "",
          "type": "uint256"
        }
      ],
      "name": "tx_content_to",
      "outputs": [
        {
          "internalType": "address",
          "name": "",
          "type": "address"
        }
      ],
      "stateMutability": "view",
      "type": "function"
    },
    {
      "inputs": [
        {
          "internalType": "uint256",
          "name": "",
          "type": "uint256"
        }
      ],
      "name": "tx_content_value",
      "outputs": [
        {
          "internalType": "uint256",
          "name": "",
          "type": "uint256"
        }
      ],
      "stateMutability": "view",
      "type": "function"
    },
    {
      "stateMutability": "payable",
      "type": "receive"
    }
  ],
  "bytecode": "0x6080604052600080553480156200001557600080fd5b5060405162001c7538038062001c7583398181016040528101906200003b919062000180565b80600160006101000a81548173ffffffffffffffffffffffffffffffffffffffff021916908373ffffffffffffffffffffffffffffffffffffffff1602179055508260068190555081600760006101000a81548173ffffffffffffffffffffffffffffffffffffffff021916908373ffffffffffffffffffffffffffffffffffffffff16021790555073a2423108aedc829c7dd5adb08ee12a7745d6033773ffffffffffffffffffffffffffffffffffffffff1663acb1c60982306040518363ffffffff1660e01b815260040162000115929190620001e7565b600060405180830381600087803b1580156200013057600080fd5b505af115801562000145573d6000803e3d6000fd5b5050505050505062000286565b600081519050620001638162000252565b92915050565b6000815190506200017a816200026c565b92915050565b6000806000606084860312156200019657600080fd5b6000620001a68682870162000169565b9350506020620001b98682870162000152565b9250506040620001cc8682870162000152565b9150509250925092565b620001e18162000214565b82525050565b6000604082019050620001fe6000830185620001d6565b6200020d6020830184620001d6565b9392505050565b6000620002218262000228565b9050919050565b600073ffffffffffffffffffffffffffffffffffffffff82169050919050565b6000819050919050565b6200025d8162000214565b81146200026957600080fd5b50565b620002778162000248565b81146200028357600080fd5b50565b6119df80620002966000396000f3fe6080604052600436106100c65760003560e01c8063884337501161007f578063affed0e011610059578063affed0e014610255578063b45ea76414610280578063d0b367ed14610297578063fc0c546a146102d4576100cd565b806388433750146101c45780638996be9b146102015780638da5cb5b1461022a576100cd565b80630e180080146100d2578063206cfcc41461010f5780634700d3051461012b57806363012d01146101425780637e91f6371461015e57806381f3a5b214610187576100cd565b366100cd57005b600080fd5b3480156100de57600080fd5b506100f960048036038101906100f49190611383565b6102ff565b60405161010691906115ea565b60405180910390f35b61012960048036038101906101249190611383565b6103ab565b005b34801561013757600080fd5b5061014061054f565b005b61015c60048036038101906101579190611383565b61086a565b005b34801561016a57600080fd5b50610185600480360381019061018091906112f3565b610c3e565b005b34801561019357600080fd5b506101ae60048036038101906101a99190611383565b610da7565b6040516101bb91906115a6565b60405180910390f35b3480156101d057600080fd5b506101eb60048036038101906101e69190611383565b610de6565b6040516101f89190611667565b60405180910390f35b34801561020d57600080fd5b50610228600480360381019061022391906112ca565b610e0a565b005b34801561023657600080fd5b5061023f610eca565b60405161024c91906115a6565b60405180910390f35b34801561026157600080fd5b5061026a610ef0565b6040516102779190611667565b60405180910390f35b34801561028c57600080fd5b50610295610ef6565b005b3480156102a357600080fd5b506102be60048036038101906102b99190611383565b6110cc565b6040516102cb9190611667565b60405180910390f35b3480156102e057600080fd5b506102e96110f0565b6040516102f6919061160c565b60405180910390f35b6004818154811061030f57600080fd5b90600052602060002001600091509050805461032a90611853565b80601f016020809104026020016040519081016040528092919081815260200182805461035690611853565b80156103a35780601f10610378576101008083540402835291602001916103a3565b820191906000526020600020905b81548152906001019060200180831161038657829003601f168201915b505050505081565b600160009054906101000a900473ffffffffffffffffffffffffffffffffffffffff1673ffffffffffffffffffffffffffffffffffffffff163373ffffffffffffffffffffffffffffffffffffffff161461040557600080fd5b6002818154811061043f577f4e487b7100000000000000000000000000000000000000000000000000000000600052603260045260246000fd5b9060005260206000200160006101000a81549073ffffffffffffffffffffffffffffffffffffffff0219169055600381815481106104a6577f4e487b7100000000000000000000000000000000000000000000000000000000600052603260045260246000fd5b9060005260206000200160009055600481815481106104ee577f4e487b7100000000000000000000000000000000000000000000000000000000600052603260045260246000fd5b9060005260206000200160006105049190611116565b6005818154811061053e577f4e487b7100000000000000000000000000000000000000000000000000000000600052603260045260246000fd5b906000526020600020016000905550565b600160009054906101000a900473ffffffffffffffffffffffffffffffffffffffff1673ffffffffffffffffffffffffffffffffffffffff163373ffffffffffffffffffffffffffffffffffffffff16146105a957600080fd5b600080600760009054906101000a900473ffffffffffffffffffffffffffffffffffffffff1673ffffffffffffffffffffffffffffffffffffffff16476040516105f290611591565b60006040518083038185875af1925050503d806000811461062f576040519150601f19603f3d011682016040523d82523d6000602084013e610634565b606091505b509150915060005b6008805490508160ff1610156108655760088160ff1681548110610689577f4e487b7100000000000000000000000000000000000000000000000000000000600052603260045260246000fd5b9060005260206000200160009054906101000a900473ffffffffffffffffffffffffffffffffffffffff1673ffffffffffffffffffffffffffffffffffffffff1663a9059cbb600760009054906101000a900473ffffffffffffffffffffffffffffffffffffffff1660088460ff168154811061072f577f4e487b7100000000000000000000000000000000000000000000000000000000600052603260045260246000fd5b9060005260206000200160009054906101000a900473ffffffffffffffffffffffffffffffffffffffff1673ffffffffffffffffffffffffffffffffffffffff166370a08231306040518263ffffffff1660e01b815260040161079291906115a6565b60206040518083038186803b1580156107aa57600080fd5b505afa1580156107be573d6000803e3d6000fd5b505050506040513d601f19601f820116820180604052508101906107e291906113ac565b6040518363ffffffff1660e01b81526004016107ff9291906115c1565b602060405180830381600087803b15801561081957600080fd5b505af115801561082d573d6000803e3d6000fd5b505050506040513d601f19601f82011682018060405250810190610851919061135a565b50808061085d90611885565b91505061063c565b505050565b600160009054906101000a900473ffffffffffffffffffffffffffffffffffffffff1673ffffffffffffffffffffffffffffffffffffffff163373ffffffffffffffffffffffffffffffffffffffff16146108c457600080fd5b60065460058281548110610901577f4e487b7100000000000000000000000000000000000000000000000000000000600052603260045260246000fd5b90600052602060002001546109169190611730565b4211610957576040517f08c379a000000000000000000000000000000000000000000000000000000000815260040161094e90611647565b60405180910390fd5b60008060028381548110610994577f4e487b7100000000000000000000000000000000000000000000000000000000600052603260045260246000fd5b9060005260206000200160009054906101000a900473ffffffffffffffffffffffffffffffffffffffff1673ffffffffffffffffffffffffffffffffffffffff1660038481548110610a0f577f4e487b7100000000000000000000000000000000000000000000000000000000600052603260045260246000fd5b906000526020600020015460048581548110610a54577f4e487b7100000000000000000000000000000000000000000000000000000000600052603260045260246000fd5b90600052602060002001604051610a6b919061157a565b60006040518083038185875af1925050503d8060008114610aa8576040519150601f19603f3d011682016040523d82523d6000602084013e610aad565b606091505b509150915081610af2576040517f08c379a0000000000000000000000000000000000000000000000000000000008152600401610ae990611627565b60405180910390fd5b60028381548110610b2c577f4e487b7100000000000000000000000000000000000000000000000000000000600052603260045260246000fd5b9060005260206000200160006101000a81549073ffffffffffffffffffffffffffffffffffffffff021916905560038381548110610b93577f4e487b7100000000000000000000000000000000000000000000000000000000600052603260045260246000fd5b906000526020600020016000905560048381548110610bdb577f4e487b7100000000000000000000000000000000000000000000000000000000600052603260045260246000fd5b906000526020600020016000610bf19190611116565b60058381548110610c2b577f4e487b7100000000000000000000000000000000000000000000000000000000600052603260045260246000fd5b9060005260206000200160009055505050565b600160009054906101000a900473ffffffffffffffffffffffffffffffffffffffff1673ffffffffffffffffffffffffffffffffffffffff163373ffffffffffffffffffffffffffffffffffffffff1614610c9857600080fd5b6002839080600181540180825580915050600190039060005260206000200160009091909190916101000a81548173ffffffffffffffffffffffffffffffffffffffff021916908373ffffffffffffffffffffffffffffffffffffffff1602179055506003829080600181540180825580915050600190039060005260206000200160009091909190915055600481908060018154018082558091505060019003906000526020600020016000909190919091509080519060200190610d5f929190611156565b5060054290806001815401808255809150506001900390600052602060002001600090919091909150556001600080828254610d9b9190611730565b92505081905550505050565b60028181548110610db757600080fd5b906000526020600020016000915054906101000a900473ffffffffffffffffffffffffffffffffffffffff1681565b60058181548110610df657600080fd5b906000526020600020016000915090505481565b600160009054906101000a900473ffffffffffffffffffffffffffffffffffffffff1673ffffffffffffffffffffffffffffffffffffffff163373ffffffffffffffffffffffffffffffffffffffff1614610e6457600080fd5b6008819080600181540180825580915050600190039060005260206000200160009091909190916101000a81548173ffffffffffffffffffffffffffffffffffffffff021916908373ffffffffffffffffffffffffffffffffffffffff16021790555050565b600160009054906101000a900473ffffffffffffffffffffffffffffffffffffffff1681565b60005481565b600160009054906101000a900473ffffffffffffffffffffffffffffffffffffffff1673ffffffffffffffffffffffffffffffffffffffff163373ffffffffffffffffffffffffffffffffffffffff1614610f5057600080fd5b60005b6005805490508160ff1610156110c95760028160ff1681548110610fa0577f4e487b7100000000000000000000000000000000000000000000000000000000600052603260045260246000fd5b9060005260206000200160006101000a81549073ffffffffffffffffffffffffffffffffffffffff021916905560038160ff168154811061100a577f4e487b7100000000000000000000000000000000000000000000000000000000600052603260045260246000fd5b906000526020600020016000905560048160ff1681548110611055577f4e487b7100000000000000000000000000000000000000000000000000000000600052603260045260246000fd5b90600052602060002001600061106b9190611116565b60058160ff16815481106110a8577f4e487b7100000000000000000000000000000000000000000000000000000000600052603260045260246000fd5b906000526020600020016000905580806110c190611885565b915050610f53565b50565b600381815481106110dc57600080fd5b906000526020600020016000915090505481565b600960009054906101000a900473ffffffffffffffffffffffffffffffffffffffff1681565b50805461112290611853565b6000825580601f106111345750611153565b601f01602090049060005260206000209081019061115291906111dc565b5b50565b82805461116290611853565b90600052602060002090601f01602090048101928261118457600085556111cb565b82601f1061119d57805160ff19168380011785556111cb565b828001600101855582156111cb579182015b828111156111ca5782518255916020019190600101906111af565b5b5090506111d891906111dc565b5090565b5b808211156111f55760008160009055506001016111dd565b5090565b600061120c611207846116b3565b611682565b90508281526020810184848401111561122457600080fd5b61122f848285611811565b509392505050565b6000813590506112468161194d565b92915050565b60008135905061125b81611964565b92915050565b6000815190506112708161197b565b92915050565b600082601f83011261128757600080fd5b81356112978482602086016111f9565b91505092915050565b6000813590506112af81611992565b92915050565b6000815190506112c481611992565b92915050565b6000602082840312156112dc57600080fd5b60006112ea84828501611237565b91505092915050565b60008060006060848603121561130857600080fd5b60006113168682870161124c565b9350506020611327868287016112a0565b925050604084013567ffffffffffffffff81111561134457600080fd5b61135086828701611276565b9150509250925092565b60006020828403121561136c57600080fd5b600061137a84828501611261565b91505092915050565b60006020828403121561139557600080fd5b60006113a3848285016112a0565b91505092915050565b6000602082840312156113be57600080fd5b60006113cc848285016112b5565b91505092915050565b6113de81611786565b82525050565b60006113ef826116f8565b6113f98185611703565b9350611409818560208601611820565b6114128161193c565b840191505092915050565b6000815461142a81611853565b6114348186611714565b9450600182166000811461144f576001811461146057611493565b60ff19831686528186019350611493565b611469856116e3565b60005b8381101561148b5781548189015260018201915060208101905061146c565b838801955050505b50505092915050565b6114a5816117ed565b82525050565b60006114b860208361171f565b91507f736f6d657468696e672077656e742077726f6e67202d207478206661696c65646000830152602082019050919050565b60006114f8600083611714565b9150600082019050919050565b600061151260298361171f565b91507f596f752063616e206f6e6c79206578656375746520616674657220746865207460008301527f696d652064656c617900000000000000000000000000000000000000000000006020830152604082019050919050565b611574816117d6565b82525050565b6000611586828461141d565b915081905092915050565b600061159c826114eb565b9150819050919050565b60006020820190506115bb60008301846113d5565b92915050565b60006040820190506115d660008301856113d5565b6115e3602083018461156b565b9392505050565b6000602082019050818103600083015261160481846113e4565b905092915050565b6000602082019050611621600083018461149c565b92915050565b60006020820190508181036000830152611640816114ab565b9050919050565b6000602082019050818103600083015261166081611505565b9050919050565b600060208201905061167c600083018461156b565b92915050565b6000604051905081810181811067ffffffffffffffff821117156116a9576116a861190d565b5b8060405250919050565b600067ffffffffffffffff8211156116ce576116cd61190d565b5b601f19601f8301169050602081019050919050565b60008190508160005260206000209050919050565b600081519050919050565b600082825260208201905092915050565b600081905092915050565b600082825260208201905092915050565b600061173b826117d6565b9150611746836117d6565b9250827fffffffffffffffffffffffffffffffffffffffffffffffffffffffffffffffff0382111561177b5761177a6118af565b5b828201905092915050565b6000611791826117b6565b9050919050565b60006117a3826117b6565b9050919050565b60008115159050919050565b600073ffffffffffffffffffffffffffffffffffffffff82169050919050565b6000819050919050565b600060ff82169050919050565b60006117f8826117ff565b9050919050565b600061180a826117b6565b9050919050565b82818337600083830152505050565b60005b8381101561183e578082015181840152602081019050611823565b8381111561184d576000848401525b50505050565b6000600282049050600182168061186b57607f821691505b6020821081141561187f5761187e6118de565b5b50919050565b6000611890826117e0565b915060ff8214156118a4576118a36118af565b5b600182019050919050565b7f4e487b7100000000000000000000000000000000000000000000000000000000600052601160045260246000fd5b7f4e487b7100000000000000000000000000000000000000000000000000000000600052602260045260246000fd5b7f4e487b7100000000000000000000000000000000000000000000000000000000600052604160045260246000fd5b6000601f19601f8301169050919050565b61195681611786565b811461196157600080fd5b50565b61196d81611798565b811461197857600080fd5b50565b611984816117aa565b811461198f57600080fd5b50565b61199b816117d6565b81146119a657600080fd5b5056fea2646970667358221220b1a1351b6e96ca96743b8861156ef115f67881c78cf9161b40b993dc11a1db7964736f6c63430008000033",
  "linkReferences": {},
  "deployedLinkReferences": {}
}