{
  "_format": "hh-sol-artifact-1",
  "contractName": "owner_to_wallet_saver",
  "sourceName": "contracts/owner_to_wallet_saver.sol",
  "abi": [
    {
      "inputs": [
        {
          "internalType": "address",
          "name": "owner_address",
          "type": "address"
        },
        {
          "internalType": "address",
          "name": "wallet_address",
          "type": "address"
        }
      ],
      "name": "add_pair",
      "outputs": [],
      "stateMutability": "nonpayable",
      "type": "function"
    },
    {
      "inputs": [
        {
          "internalType": "address",
          "name": "",
          "type": "address"
        }
      ],
      "name": "mapping_owner_to_wallet_saver",
      "outputs": [
        {
          "internalType": "address",
          "name": "",
          "type": "address"
        }
      ],
      "stateMutability": "view",
      "type": "function"
    },
    {
      "inputs": [
        {
          "internalType": "address",
          "name": "owner_address",
          "type": "address"
        }
      ],
      "name": "read_mapping",
      "outputs": [
        {
          "internalType": "address",
          "name": "",
          "type": "address"
        }
      ],
      "stateMutability": "view",
      "type": "function"
    }
  ],
  "bytecode": "0x608060405234801561001057600080fd5b50610301806100206000396000f3fe608060405234801561001057600080fd5b50600436106100415760003560e01c80631b4ca948146100465780638a4b909914610076578063acb1c609146100a6575b600080fd5b610060600480360381019061005b91906101f3565b6100c2565b60405161006d9190610267565b60405180910390f35b610090600480360381019061008b91906101f3565b6100f5565b60405161009d9190610267565b60405180910390f35b6100c060048036038101906100bb919061021c565b61015d565b005b60006020528060005260406000206000915054906101000a900473ffffffffffffffffffffffffffffffffffffffff1681565b60008060008373ffffffffffffffffffffffffffffffffffffffff1673ffffffffffffffffffffffffffffffffffffffff16815260200190815260200160002060009054906101000a900473ffffffffffffffffffffffffffffffffffffffff169050919050565b806000808473ffffffffffffffffffffffffffffffffffffffff1673ffffffffffffffffffffffffffffffffffffffff16815260200190815260200160002060006101000a81548173ffffffffffffffffffffffffffffffffffffffff021916908373ffffffffffffffffffffffffffffffffffffffff1602179055505050565b6000813590506101ed816102b4565b92915050565b60006020828403121561020557600080fd5b6000610213848285016101de565b91505092915050565b6000806040838503121561022f57600080fd5b600061023d858286016101de565b925050602061024e858286016101de565b9150509250929050565b61026181610282565b82525050565b600060208201905061027c6000830184610258565b92915050565b600061028d82610294565b9050919050565b600073ffffffffffffffffffffffffffffffffffffffff82169050919050565b6102bd81610282565b81146102c857600080fd5b5056fea2646970667358221220fdff0dbff4365433448309bca0b7804d0a04b5aaee288a3f7aa136fb437e12af64736f6c63430008000033",
  "linkReferences": {},
  "deployedLinkReferences": {}
}